:020000040800F2
:10000000A8060020BD010008C5010008C7010008BE
:10001000C9010008CB010008CD0100080000000064
:10002000000000000000000000000000CF010008F8
:10003000D101000800000000D3010008D50100082C
:10004000D7010008D7010008D7010008D701000830
:10005000D7010008D7010008D7010008D701000820
:10006000D7010008D7010008D7010008D701000810
:10007000D7010008D7010008D7010008D701000800
:10008000D7010008D7010008D701000800000000D0
:10009000000000000000000000000000D701000880
:1000A000D7010008D7010008D7010008D7010008D0
:1000B000D7010008D7010008D7010008D7010008C0
:1000C000D7010008D7010008D7010008D7010008B0
:1000D000D701000889060008D7010008D7010008E9
:1000E000D7010008D7010008D70100080000000070
:1000F0000000000000000000000000000000000000
:1001000000000000000000000000000000000000EF
:100110000000000000000000D7010008D70100081F
:1001200000F002F800F03AF80AA090E8000C8244CF
:100130008344AAF10107DA4501D100F02FF8AFF2AC
:10014000090EBAE80F0013F0010F18BFFB1A43F0B5
:1001500001031847AC070000CC070000103A24BF89
:1001600078C878C1FAD8520724BF30C830C144BF1C
:1001700004680C607047000000230024002500265E
:10018000103A28BF78C1FBD8520728BF30C148BFFA
:100190000B6070471FB51FBD10B510BD00F031F8E2
:1001A0001146FFF7F7FF00F061FB00F04FF803B4D2
:1001B000FFF7F2FF03BC00F057F800000948804742
:1001C00009480047FEE7FEE7FEE7FEE7FEE7FEE739
:1001D000FEE7FEE7FEE7FEE704480549054A064B51
:1001E000704700002506000821010008A800002033
:1001F000A8060020A8020020A8020020704770472F
:100200007047754600F02CF8AE4605006946534627
:1002100020F00700854618B020B5FFF7DDFFBDE8E8
:1002200020404FF000064FF000074FF000084FF05D
:10023000000B21F00701AC46ACE8C009ACE8C009EE
:10024000ACE8C009ACE8C0098D46704710B504465B
:10025000AFF300802046BDE81040FFF7A8BF0000C4
:10026000004870474800002001491820ABBEFEE757
:10027000260002007047000008B54FF40070ADF88A
:10028000000003208DF8020018208DF80300694655
:10029000014800F003F808BD000801402DE9F041D5
:1002A000024600250026002000230024002791F8A4
:1002B00003C00CF00F0591F803C00CF0100CBCF15A
:1002C000000F03D091F802C04CEA050591F800C078
:1002D000BCF1000F31D0146800202BE04FF0010C6E
:1002E0000CFA00F3B1F800C00CEA03069E4220D1DC
:1002F00083004FF00F0C0CFA03F7BC4305FA03FC24
:100300004CEA040491F803C0BCF1280F06D14FF069
:10031000010C0CFA00FCC2F814C00AE091F803C00A
:10032000BCF1480F05D14FF0010C0CFA00FCC2F8EB
:1003300010C0401C0828D1D31460B1F800C0BCF133
:10034000FF0F34DD546800202EE000F1080C4FF060
:10035000010808FA0CF3B1F800C00CEA03069E424B
:1003600021D183004FF00F0C0CFA03F7BC4305FAC0
:1003700003FC4CEA040491F803C0BCF1280F05D13A
:1003800000F1080C08FA0CF8C2F8148091F803C0C8
:10039000BCF1480F07D100F1080C4FF0010808FA32
:1003A0000CF8C2F81080401C0828CED35460BDE879
:1003B000F08108B54FF4E06000F046F825208DF894
:1003C000000000208DF8020001208DF8030068462F
:1003D00000F002F808BD000070B5002100230F22D4
:1003E000C47804B3154C246804F4E064C4F5E064F4
:1003F000210AC1F10403CA40447804FA03F1847865
:100400001440214309010E4C0678A155047804F0EC
:100410001F050124AC4005786D11AD0005F1E02504
:10042000C5F8004109E0047804F01F050124AC4040
:10043000044D0678761145F8264070BD0CED00E0BD
:1004400000E400E080E100E002490143024A11605B
:10045000704700000000FA050CED00E029B1064AE3
:1004600092690243044B9A6104E0034A9269824311
:10047000014B9A61704700000010024010B5012145
:100480000520FFF7EBFF01218803FFF7E7FF10BD11
:1004900070B5002100230024002200252C4E766830
:1004A00006F00C0121B1042905D0082921D105E06D
:1004B000284E066020E0274E06601DE0244E766838
:1004C00006F47013224E766806F48034022606EB9A
:1004D00093431CB9204E5E43066009E01C4EF66A49
:1004E00006F00F06751C1B4EB6FBF5F65E43066064
:1004F00002E0184E066000BF00BF154E766806F099
:10050000F0010909154E725C0668D6404660104E2F
:10051000766806F4E061090A104E725C4668D640BF
:1005200086600B4E766806F46051C90A0B4E725C09
:100530004668D640C660064E766806F44041890B90
:10054000074E725CC668B6FBF2F6066170BD00002D
:100550000010024000127A0000093D000C0000204B
:100560001C00002010B500F001F810BD0CB50020F3
:10057000019000902A48006840F4803028490860C3
:1005800000BF2748006800F4003000900198401C2C
:100590000190009818B90198B0F5A06FF1D12048EA
:1005A000006800F4003010B10120009001E000204C
:1005B00000900098012831D11948406818494860D6
:1005C00008464068486008464068486008464068F9
:1005D00020F47C1048600846406840F49810486059
:1005E0000846006840F08070086000BF0C48006852
:1005F00000F000700028F9D00948406820F003009E
:10060000074948600846406840F00200486000BF63
:100610000348406800F00C000828F9D10CBD000028
:100620000010024010B51448006840F00100124963
:10063000086008464068114908400F49486008466C
:1006400000680F4908400C4908600846006820F41B
:10065000802008600846406820F4FE0048604FF49F
:100660001F0088600020C862FFF77CFF4FF0006029
:100670000449086010BD0000001002400000FFF8AF
:10068000FFFFF6FE08ED00E010B540F227710D48BF
:1006900000F02CF8A8B10C480478601C0A4A1070CD
:1006A0000A48015D074800F0DDF80748007808496E
:1006B0000978884205D1002240F22771014800F0F4
:1006C0003FF810BD0038014000000020300000203D
:1006D0000100002021B1828942F40052828104E0AD
:1006E00082894DF6FF731A408281704770B50246C9
:1006F000002400230025002040F66A16B14200D1F4
:1007000000BFC1F3421501F01F03012606FA03F3EF
:10071000012D02D19689334006E0022D02D1168ABE
:10072000334001E0968A33400C12012606FA04F4A5
:100730001688344013B10CB1012000E0002070BDD8
:10074000F0B50346002400260025002040F66A1775
:10075000B94200D100BF1846C1F3421401F01F0690
:10076000012707FA06F5012C01D10C3004E0022C18
:1007700001D1103000E014301AB107682F43076030
:1007800002E00768AF430760F0BD00002DE9F047C5
:1007900086B005460E460024A24600BFA1460027AB
:1007A000B08900B100BF2F462C8A4CF6FF70044080
:1007B000F08804432C82AC894EF6F3100440B088D4
:1007C00031890843718908430443AC81AC8A4FF6F0
:1007D000FF400440B0890443AC8201A8FFF758FEF3
:1007E0001F48874202D1DDF810A001E0DDF80CA01F
:1007F000A88900F4004040B10AEBCA0000EB0A10DF
:1008000031684900B0FBF1F807E00AEBCA0000EBE1
:100810000A1031688900B0FBF1F86420B8FBF0F0F1
:1008200004012009642101FB1089A88900F400401B
:1008300040B1322000EBC900B0FBF1F000F007003E
:10084000044308E0322000EB09106421B0FBF1F012
:1008500000F00F0004432C8106B0BDE8F0870000D3
:1008600000380140C1F308028280704700201E4911
:10087000086015E01D4800681B490968405C1C4978
:10088000194A12688854084617490968415C194892
:10089000154A1268815414480068401C12490860C7
:1008A000114800680C28E5DBFFF7E8FDFFF781FD44
:1008B000FFF7E2FC4FF416500F49086000208880D3
:1008C000C880088188810C2048810C48FFF75EFFB2
:1008D000012240F227710948FFF732FF0121074842
:1008E000FFF7F8FE00BFFEE708000020040000202C
:1008F0003C00002030000020200000200038014093
:100900002009000800000020200000005C01000811
:100910004009000820000020880600007801000837
:10092000000B0000E8F7FF1F0000000000000000BF
:100930000102030401020304060708090204060871
:0400000508000121CD
:00000001FF
